{
  "_format": "hh-sol-artifact-1",
  "contractName": "DrugPrescriptionSystem",
  "sourceName": "contracts/DrugPrescriptionSystem.sol",
  "abi": [
    {
      "inputs": [],
      "stateMutability": "nonpayable",
      "type": "constructor"
    },
    {
      "inputs": [
        {
          "internalType": "uint256",
          "name": "key",
          "type": "uint256"
        },
        {
          "internalType": "string",
          "name": "email",
          "type": "string"
        },
        {
          "internalType": "string",
          "name": "password",
          "type": "string"
        },
        {
          "internalType": "string",
          "name": "name",
          "type": "string"
        }
      ],
      "name": "AddUser",
      "outputs": [],
      "stateMutability": "nonpayable",
      "type": "function"
    },
    {
      "inputs": [],
      "name": "generateID",
      "outputs": [
        {
          "internalType": "uint256",
          "name": "",
          "type": "uint256"
        }
      ],
      "stateMutability": "nonpayable",
      "type": "function"
    },
    {
      "inputs": [],
      "name": "nonce",
      "outputs": [
        {
          "internalType": "uint256",
          "name": "",
          "type": "uint256"
        }
      ],
      "stateMutability": "view",
      "type": "function"
    },
    {
      "inputs": [
        {
          "internalType": "uint256",
          "name": "user_id",
          "type": "uint256"
        },
        {
          "internalType": "string",
          "name": "newPassword",
          "type": "string"
        }
      ],
      "name": "updatePassword",
      "outputs": [],
      "stateMutability": "nonpayable",
      "type": "function"
    },
    {
      "inputs": [
        {
          "internalType": "uint256",
          "name": "",
          "type": "uint256"
        }
      ],
      "name": "users",
      "outputs": [
        {
          "internalType": "uint256",
          "name": "id",
          "type": "uint256"
        },
        {
          "internalType": "string",
          "name": "name",
          "type": "string"
        },
        {
          "internalType": "string",
          "name": "email",
          "type": "string"
        },
        {
          "internalType": "string",
          "name": "password",
          "type": "string"
        }
      ],
      "stateMutability": "view",
      "type": "function"
    }
  ],
  "bytecode": "0x608060405234801561001057600080fd5b5060008081905550610bd8806100276000396000f3fe608060405234801561001057600080fd5b50600436106100575760003560e01c8063098689a21461005c578063365b98b2146100785780634d88747e146100ab57806394116d46146100c7578063affed0e0146100e5575b600080fd5b61007660048036038101906100719190610548565b610103565b005b610092600480360381019061008d9190610603565b610160565b6040516100a294939291906106be565b60405180910390f35b6100c560048036038101906100c09190610718565b610328565b005b6100cf610350565b6040516100dc9190610774565b60405180910390f35b6100ed6103b2565b6040516100fa9190610774565b60405180910390f35b600060016000868152602001908152602001600020905084816000018190555083816002019081610134919061099b565b5082816003019081610146919061099b565b5081816001019081610158919061099b565b505050505050565b6001602052806000526040600020600091509050806000015490806001018054610189906107be565b80601f01602080910402602001604051908101604052809291908181526020018280546101b5906107be565b80156102025780601f106101d757610100808354040283529160200191610202565b820191906000526020600020905b8154815290600101906020018083116101e557829003601f168201915b505050505090806002018054610217906107be565b80601f0160208091040260200160405190810160405280929190818152602001828054610243906107be565b80156102905780601f1061026557610100808354040283529160200191610290565b820191906000526020600020905b81548152906001019060200180831161027357829003601f168201915b5050505050908060030180546102a5906107be565b80601f01602080910402602001604051908101604052809291908181526020018280546102d1906107be565b801561031e5780601f106102f35761010080835404028352916020019161031e565b820191906000526020600020905b81548152906001019060200180831161030157829003601f168201915b5050505050905084565b8060016000848152602001908152602001600020600301908161034b919061099b565b505050565b600080600081548092919061036490610a9c565b91905055506000620f4240600054424460405160200161038693929190610b05565b6040516020818303038152906040528051906020012060001c6103a99190610b71565b90508091505090565b60005481565b6000604051905090565b600080fd5b600080fd5b6000819050919050565b6103df816103cc565b81146103ea57600080fd5b50565b6000813590506103fc816103d6565b92915050565b600080fd5b600080fd5b6000601f19601f8301169050919050565b7f4e487b7100000000000000000000000000000000000000000000000000000000600052604160045260246000fd5b6104558261040c565b810181811067ffffffffffffffff821117156104745761047361041d565b5b80604052505050565b60006104876103b8565b9050610493828261044c565b919050565b600067ffffffffffffffff8211156104b3576104b261041d565b5b6104bc8261040c565b9050602081019050919050565b82818337600083830152505050565b60006104eb6104e684610498565b61047d565b90508281526020810184848401111561050757610506610407565b5b6105128482856104c9565b509392505050565b600082601f83011261052f5761052e610402565b5b813561053f8482602086016104d8565b91505092915050565b60008060008060808587031215610562576105616103c2565b5b6000610570878288016103ed565b945050602085013567ffffffffffffffff811115610591576105906103c7565b5b61059d8782880161051a565b935050604085013567ffffffffffffffff8111156105be576105bd6103c7565b5b6105ca8782880161051a565b925050606085013567ffffffffffffffff8111156105eb576105ea6103c7565b5b6105f78782880161051a565b91505092959194509250565b600060208284031215610619576106186103c2565b5b6000610627848285016103ed565b91505092915050565b610639816103cc565b82525050565b600081519050919050565b600082825260208201905092915050565b60005b8381101561067957808201518184015260208101905061065e565b60008484015250505050565b60006106908261063f565b61069a818561064a565b93506106aa81856020860161065b565b6106b38161040c565b840191505092915050565b60006080820190506106d36000830187610630565b81810360208301526106e58186610685565b905081810360408301526106f98185610685565b9050818103606083015261070d8184610685565b905095945050505050565b6000806040838503121561072f5761072e6103c2565b5b600061073d858286016103ed565b925050602083013567ffffffffffffffff81111561075e5761075d6103c7565b5b61076a8582860161051a565b9150509250929050565b60006020820190506107896000830184610630565b92915050565b7f4e487b7100000000000000000000000000000000000000000000000000000000600052602260045260246000fd5b600060028204905060018216806107d657607f821691505b6020821081036107e9576107e861078f565b5b50919050565b60008190508160005260206000209050919050565b60006020601f8301049050919050565b600082821b905092915050565b6000600883026108517fffffffffffffffffffffffffffffffffffffffffffffffffffffffffffffffff82610814565b61085b8683610814565b95508019841693508086168417925050509392505050565b6000819050919050565b600061089861089361088e846103cc565b610873565b6103cc565b9050919050565b6000819050919050565b6108b28361087d565b6108c66108be8261089f565b848454610821565b825550505050565b600090565b6108db6108ce565b6108e68184846108a9565b505050565b5b8181101561090a576108ff6000826108d3565b6001810190506108ec565b5050565b601f82111561094f57610920816107ef565b61092984610804565b81016020851015610938578190505b61094c61094485610804565b8301826108eb565b50505b505050565b600082821c905092915050565b600061097260001984600802610954565b1980831691505092915050565b600061098b8383610961565b9150826002028217905092915050565b6109a48261063f565b67ffffffffffffffff8111156109bd576109bc61041d565b5b6109c782546107be565b6109d282828561090e565b600060209050601f831160018114610a0557600084156109f3578287015190505b6109fd858261097f565b865550610a65565b601f198416610a13866107ef565b60005b82811015610a3b57848901518255600182019150602085019450602081019050610a16565b86831015610a585784890151610a54601f891682610961565b8355505b6001600288020188555050505b505050505050565b7f4e487b7100000000000000000000000000000000000000000000000000000000600052601160045260246000fd5b6000610aa7826103cc565b91507fffffffffffffffffffffffffffffffffffffffffffffffffffffffffffffffff8203610ad957610ad8610a6d565b5b600182019050919050565b6000819050919050565b610aff610afa826103cc565b610ae4565b82525050565b6000610b118286610aee565b602082019150610b218285610aee565b602082019150610b318284610aee565b602082019150819050949350505050565b7f4e487b7100000000000000000000000000000000000000000000000000000000600052601260045260246000fd5b6000610b7c826103cc565b9150610b87836103cc565b925082610b9757610b96610b42565b5b82820690509291505056fea26469706673582212200705dc14f9a9534733f0471ec9305b32ca7061cafaaab9cc48cd31eddb5a266464736f6c63430008120033",
  "linkReferences": {},
  "deployedLinkReferences": {}
}